{
  "contractName": "Gameitems",
  "abi": [
    {
      "inputs": [],
      "stateMutability": "nonpayable",
      "type": "constructor"
    },
    {
      "inputs": [
        {
          "internalType": "uint256",
          "name": "",
          "type": "uint256"
        }
      ],
      "name": "category",
      "outputs": [
        {
          "internalType": "uint256",
          "name": "",
          "type": "uint256"
        }
      ],
      "stateMutability": "view",
      "type": "function"
    },
    {
      "inputs": [
        {
          "internalType": "uint256",
          "name": "",
          "type": "uint256"
        }
      ],
      "name": "items",
      "outputs": [
        {
          "internalType": "uint256",
          "name": "price",
          "type": "uint256"
        },
        {
          "internalType": "address",
          "name": "owner",
          "type": "address"
        },
        {
          "internalType": "bool",
          "name": "status",
          "type": "bool"
        },
        {
          "internalType": "uint256",
          "name": "category",
          "type": "uint256"
        }
      ],
      "stateMutability": "view",
      "type": "function"
    },
    {
      "inputs": [],
      "name": "owner",
      "outputs": [
        {
          "internalType": "address",
          "name": "",
          "type": "address"
        }
      ],
      "stateMutability": "view",
      "type": "function"
    },
    {
      "inputs": [
        {
          "internalType": "uint256",
          "name": "",
          "type": "uint256"
        }
      ],
      "name": "price",
      "outputs": [
        {
          "internalType": "uint256",
          "name": "",
          "type": "uint256"
        }
      ],
      "stateMutability": "view",
      "type": "function"
    },
    {
      "inputs": [
        {
          "internalType": "uint256",
          "name": "_index",
          "type": "uint256"
        }
      ],
      "name": "buyitems",
      "outputs": [],
      "stateMutability": "payable",
      "type": "function"
    },
    {
      "inputs": [
        {
          "internalType": "address payable",
          "name": "_addr",
          "type": "address"
        },
        {
          "internalType": "uint256",
          "name": "_index",
          "type": "uint256"
        }
      ],
      "name": "send",
      "outputs": [],
      "stateMutability": "payable",
      "type": "function"
    },
    {
      "inputs": [
        {
          "internalType": "uint256",
          "name": "_index",
          "type": "uint256"
        }
      ],
      "name": "wannasold",
      "outputs": [],
      "stateMutability": "nonpayable",
      "type": "function"
    },
    {
      "inputs": [
        {
          "internalType": "uint256",
          "name": "_index",
          "type": "uint256"
        }
      ],
      "name": "regretsold",
      "outputs": [],
      "stateMutability": "nonpayable",
      "type": "function"
    },
    {
      "inputs": [
        {
          "internalType": "uint256",
          "name": "_modulus",
          "type": "uint256"
        },
        {
          "internalType": "uint256",
          "name": "randNonce",
          "type": "uint256"
        }
      ],
      "name": "randMod",
      "outputs": [
        {
          "internalType": "uint256",
          "name": "",
          "type": "uint256"
        }
      ],
      "stateMutability": "view",
      "type": "function"
    }
  ],
  "bytecode": "0x6080604052336000806101000a81548173ffffffffffffffffffffffffffffffffffffffff021916908373ffffffffffffffffffffffffffffffffffffffff160217905550604051806101e0016040528067016345785d8a000067ffffffffffffffff168152602001662386f26fc1000067ffffffffffffffff16815260200166038d7ea4c6800067ffffffffffffffff168152602001662386f26fc1000067ffffffffffffffff16815260200166038d7ea4c6800067ffffffffffffffff16815260200167016345785d8a000067ffffffffffffffff168152602001662386f26fc1000067ffffffffffffffff16815260200167016345785d8a000067ffffffffffffffff168152602001662386f26fc1000067ffffffffffffffff16815260200166038d7ea4c6800067ffffffffffffffff168152602001662386f26fc1000067ffffffffffffffff16815260200166038d7ea4c6800067ffffffffffffffff16815260200167016345785d8a000067ffffffffffffffff168152602001662386f26fc1000067ffffffffffffffff16815260200166038d7ea4c6800067ffffffffffffffff16815250600190600f620001bd929190620003b4565b50604051806101e00160405280600060ff168152602001600160ff168152602001600260ff168152602001600260ff168152602001600160ff168152602001600260ff168152602001600160ff168152602001600260ff168152602001600160ff168152602001600160ff168152602001600060ff168152602001600160ff168152602001600060ff168152602001600260ff168152602001600060ff16815250601090600f6200027092919062000405565b503480156200027e57600080fd5b5060005b600f811015620003ad57600181600f8110620002a357620002a26200046e565b5b0154601f82600f8110620002bc57620002bb6200046e565b5b60030201600001819055506000601f82600f8110620002e057620002df6200046e565b5b6003020160010160006101000a81548173ffffffffffffffffffffffffffffffffffffffff021916908373ffffffffffffffffffffffffffffffffffffffff1602179055506001601f82600f81106200033e576200033d6200046e565b5b6003020160010160146101000a81548160ff021916908315150217905550601081600f81106200037357620003726200046e565b5b0154601f82600f81106200038c576200038b6200046e565b5b60030201600201819055508080620003a490620004d6565b91505062000282565b5062000523565b82600f8101928215620003f2579160200282015b82811115620003f1578251829067ffffffffffffffff16905591602001919060010190620003c8565b5b5090506200040191906200044f565b5090565b82600f81019282156200043c579160200282015b828111156200043b578251829060ff1690559160200191906001019062000419565b5b5090506200044b91906200044f565b5090565b5b808211156200046a57600081600090555060010162000450565b5090565b7f4e487b7100000000000000000000000000000000000000000000000000000000600052603260045260246000fd5b7f4e487b7100000000000000000000000000000000000000000000000000000000600052601160045260246000fd5b6000819050919050565b6000620004e382620004cc565b91507fffffffffffffffffffffffffffffffffffffffffffffffffffffffffffffffff82036200051857620005176200049d565b5b600182019050919050565b610c2080620005336000396000f3fe6080604052600436106100865760003560e01c80638da5cb5b116100595780638da5cb5b1461014a578063ae835f6914610175578063bfb231d2146101b2578063d0679d34146101f2578063d2a4bce31461020e57610086565b8063253eca1f1461008b57806326a49e37146100c85780632a4b902e146101055780632a55fac91461012e575b600080fd5b34801561009757600080fd5b506100b260048036038101906100ad919061086d565b610237565b6040516100bf91906108a9565b60405180910390f35b3480156100d457600080fd5b506100ef60048036038101906100ea919061086d565b610252565b6040516100fc91906108a9565b60405180910390f35b34801561011157600080fd5b5061012c6004803603810190610127919061086d565b61026d565b005b6101486004803603810190610143919061086d565b61036a565b005b34801561015657600080fd5b5061015f61055c565b60405161016c9190610905565b60405180910390f35b34801561018157600080fd5b5061019c60048036038101906101979190610920565b610580565b6040516101a991906108a9565b60405180910390f35b3480156101be57600080fd5b506101d960048036038101906101d4919061086d565b6105d1565b6040516101e9949392919061097b565b60405180910390f35b61020c600480360381019061020791906109fe565b610634565b005b34801561021a57600080fd5b506102356004803603810190610230919061086d565b610735565b005b601081600f811061024757600080fd5b016000915090505481565b600181600f811061026257600080fd5b016000915090505481565b600f8110801561027e575060008110155b61028757600080fd5b3373ffffffffffffffffffffffffffffffffffffffff16601f82600f81106102b2576102b1610a3e565b5b6003020160010160009054906101000a900473ffffffffffffffffffffffffffffffffffffffff1673ffffffffffffffffffffffffffffffffffffffff16146102fa57600080fd5b60011515601f82600f811061031257610311610a3e565b5b6003020160010160149054906101000a900460ff1615151461033357600080fd5b6000601f82600f811061034957610348610a3e565b5b6003020160010160146101000a81548160ff02191690831515021790555050565b600f8110801561037b575060008110155b61038457600080fd5b600073ffffffffffffffffffffffffffffffffffffffff16601f82600f81106103b0576103af610a3e565b5b6003020160010160009054906101000a900473ffffffffffffffffffffffffffffffffffffffff1673ffffffffffffffffffffffffffffffffffffffff16148061046157503373ffffffffffffffffffffffffffffffffffffffff16601f82600f81106104205761041f610a3e565b5b6003020160010160009054906101000a900473ffffffffffffffffffffffffffffffffffffffff1673ffffffffffffffffffffffffffffffffffffffff1614155b61046a57600080fd5b60011515601f82600f811061048257610481610a3e565b5b6003020160010160149054906101000a900460ff161515146104a357600080fd5b601f81600f81106104b7576104b6610a3e565b5b60030201600001543410156104cb57600080fd5b33601f82600f81106104e0576104df610a3e565b5b6003020160010160006101000a81548173ffffffffffffffffffffffffffffffffffffffff021916908373ffffffffffffffffffffffffffffffffffffffff1602179055506000601f82600f811061053b5761053a610a3e565b5b6003020160010160146101000a81548160ff02191690831515021790555050565b60008054906101000a900473ffffffffffffffffffffffffffffffffffffffff1681565b6000818061058d90610a9c565b925050824233846040516020016105a693929190610b4d565b6040516020818303038152906040528051906020012060001c6105c99190610bb9565b905092915050565b601f81600f81106105e157600080fd5b600302016000915090508060000154908060010160009054906101000a900473ffffffffffffffffffffffffffffffffffffffff16908060010160149054906101000a900460ff16908060020154905084565b601f81600f811061064857610647610a3e565b5b600302016000015434101561065c57600080fd5b8173ffffffffffffffffffffffffffffffffffffffff166108fc349081150290604051600060405180830381858888f193505050501580156106a2573d6000803e3d6000fd5b5033601f82600f81106106b8576106b7610a3e565b5b6003020160010160006101000a81548173ffffffffffffffffffffffffffffffffffffffff021916908373ffffffffffffffffffffffffffffffffffffffff1602179055506000601f82600f811061071357610712610a3e565b5b6003020160010160146101000a81548160ff0219169083151502179055505050565b600f81108015610746575060008110155b61074f57600080fd5b3373ffffffffffffffffffffffffffffffffffffffff16601f82600f811061077a57610779610a3e565b5b6003020160010160009054906101000a900473ffffffffffffffffffffffffffffffffffffffff1673ffffffffffffffffffffffffffffffffffffffff16146107c257600080fd5b60001515601f82600f81106107da576107d9610a3e565b5b6003020160010160149054906101000a900460ff161515146107fb57600080fd5b6001601f82600f811061081157610810610a3e565b5b6003020160010160146101000a81548160ff02191690831515021790555050565b600080fd5b6000819050919050565b61084a81610837565b811461085557600080fd5b50565b60008135905061086781610841565b92915050565b60006020828403121561088357610882610832565b5b600061089184828501610858565b91505092915050565b6108a381610837565b82525050565b60006020820190506108be600083018461089a565b92915050565b600073ffffffffffffffffffffffffffffffffffffffff82169050919050565b60006108ef826108c4565b9050919050565b6108ff816108e4565b82525050565b600060208201905061091a60008301846108f6565b92915050565b6000806040838503121561093757610936610832565b5b600061094585828601610858565b925050602061095685828601610858565b9150509250929050565b60008115159050919050565b61097581610960565b82525050565b6000608082019050610990600083018761089a565b61099d60208301866108f6565b6109aa604083018561096c565b6109b7606083018461089a565b95945050505050565b60006109cb826108c4565b9050919050565b6109db816109c0565b81146109e657600080fd5b50565b6000813590506109f8816109d2565b92915050565b60008060408385031215610a1557610a14610832565b5b6000610a23858286016109e9565b9250506020610a3485828601610858565b9150509250929050565b7f4e487b7100000000000000000000000000000000000000000000000000000000600052603260045260246000fd5b7f4e487b7100000000000000000000000000000000000000000000000000000000600052601160045260246000fd5b6000610aa782610837565b91507fffffffffffffffffffffffffffffffffffffffffffffffffffffffffffffffff8203610ad957610ad8610a6d565b5b600182019050919050565b6000819050919050565b610aff610afa82610837565b610ae4565b82525050565b60008160601b9050919050565b6000610b1d82610b05565b9050919050565b6000610b2f82610b12565b9050919050565b610b47610b42826108e4565b610b24565b82525050565b6000610b598286610aee565b602082019150610b698285610b36565b601482019150610b798284610aee565b602082019150819050949350505050565b7f4e487b7100000000000000000000000000000000000000000000000000000000600052601260045260246000fd5b6000610bc482610837565b9150610bcf83610837565b925082610bdf57610bde610b8a565b5b82820690509291505056fea2646970667358221220adbbde884b61b628c72338c5fb4d9531d164b60abd60f65b36e13a1a7cf0bd3564736f6c634300080e0033",
  "immutableReferences": {},
  "source": "pragma solidity ^0.8.7;\r\n// SPDX-License-Identifier: MIT\r\n\r\nuint256 constant TOTAL_GAMEITEM = 15;\r\n\r\n\r\ncontract Gameitems {\r\n  address public owner = msg.sender;\r\n\r\n  uint[TOTAL_GAMEITEM] public price = [1e17,1e16,1e15,1e16,1e15,1e17,1e16,1e17,1e16,1e15,1e16,1e15,1e17,1e16,1e15];\r\n  uint[TOTAL_GAMEITEM] public category = [0,1,2,2,1,2,1,2,1,1,0,1,0,2,0];\r\n\r\n  struct Gameitem {\r\n    uint256 price;\r\n    address owner;\r\n    bool status; // true : solding, false : backpack, \r\n    uint256 category; // 0 : , 1 : , 2 : \r\n  }\r\n\r\n  Gameitem[TOTAL_GAMEITEM] public items;\r\n  \r\n  \r\n  constructor() {\r\n    for (uint256 i = 0; i < TOTAL_GAMEITEM; i++) {\r\n      items[i].price = price[i]; // 0.1 ETH\r\n      items[i].owner = address(0x0);\r\n      items[i].status = true;\r\n      items[i].category = category[i];\r\n    }\r\n  }\r\n\r\n  // \r\n  function buyitems(uint256 _index) external payable {\r\n    require(_index < TOTAL_GAMEITEM && _index >= 0);\r\n    require(items[_index].owner == address(0x0) || items[_index].owner != msg.sender);\r\n    require(items[_index].status == true);\r\n    require(msg.value >= items[_index].price);\r\n    items[_index].owner = msg.sender;\r\n    items[_index].status = false;\r\n  }\r\n\r\n  // \r\n  function send(address payable _addr, uint256 _index) payable public {\r\n    require(msg.value >= items[_index].price);\r\n    _addr.transfer(msg.value);\r\n    items[_index].owner = msg.sender;\r\n    items[_index].status = false;\r\n  }\r\n  // \r\n  function wannasold(uint256 _index) public {\r\n    require(_index < TOTAL_GAMEITEM && _index >= 0);\r\n    require(items[_index].owner == msg.sender);\r\n    require(items[_index].status == false);\r\n    items[_index].status = true;\r\n  }\r\n\r\n  // ()\r\n  function regretsold(uint256 _index) public {\r\n    require(_index < TOTAL_GAMEITEM && _index >= 0);\r\n    require(items[_index].owner == msg.sender);\r\n    require(items[_index].status == true);\r\n    items[_index].status = false;\r\n  }\r\n\r\n  // random value \r\n  function randMod(uint256 _modulus, uint randNonce) public view returns(uint){\r\n    randNonce++; \r\n    return uint(keccak256(abi.encodePacked(block.timestamp,msg.sender,randNonce))) % _modulus;\r\n  }\r\n\r\n}",
  "sourcePath": "C:\\Users\\mclab3-HaoPo\\Desktop\\NCCU CS HW\\1102_Blockchain\\GameItem_Final\\contracts\\Gameitems.sol",
  "compiler": {
    "name": "solc",
    "version": "0.8.14+commit.80d49f37.Emscripten.clang"
  },
  "schemaVersion": "3.4.7",
  "updatedAt": "2022-06-07T09:15:50.325Z",
  "devdoc": {
    "kind": "dev",
    "methods": {},
    "version": 1
  },
  "userdoc": {
    "kind": "user",
    "methods": {},
    "version": 1
  }
}